{
  "contractName": "Blackjack",
  "abi": [
    {
      "constant": true,
      "inputs": [],
      "name": "player",
      "outputs": [
        {
          "name": "",
          "type": "address"
        }
      ],
      "payable": false,
      "stateMutability": "view",
      "type": "function"
    },
    {
      "constant": true,
      "inputs": [],
      "name": "playerFund",
      "outputs": [
        {
          "name": "",
          "type": "uint256"
        }
      ],
      "payable": false,
      "stateMutability": "view",
      "type": "function"
    },
    {
      "constant": true,
      "inputs": [],
      "name": "owner",
      "outputs": [
        {
          "name": "",
          "type": "address"
        }
      ],
      "payable": false,
      "stateMutability": "view",
      "type": "function"
    },
    {
      "constant": true,
      "inputs": [],
      "name": "dealerFund",
      "outputs": [
        {
          "name": "",
          "type": "uint256"
        }
      ],
      "payable": false,
      "stateMutability": "view",
      "type": "function"
    },
    {
      "constant": true,
      "inputs": [],
      "name": "dealer",
      "outputs": [
        {
          "name": "",
          "type": "address"
        }
      ],
      "payable": false,
      "stateMutability": "view",
      "type": "function"
    },
    {
      "inputs": [],
      "payable": false,
      "stateMutability": "nonpayable",
      "type": "constructor"
    },
    {
      "anonymous": false,
      "inputs": [
        {
          "indexed": false,
          "name": "winner",
          "type": "uint256"
        },
        {
          "indexed": false,
          "name": "amount",
          "type": "uint256"
        }
      ],
      "name": "GameState",
      "type": "event"
    },
    {
      "anonymous": false,
      "inputs": [
        {
          "indexed": false,
          "name": "winner",
          "type": "uint256"
        },
        {
          "indexed": false,
          "name": "amount",
          "type": "uint256"
        }
      ],
      "name": "GameEnded",
      "type": "event"
    },
    {
      "anonymous": false,
      "inputs": [
        {
          "indexed": false,
          "name": "msg",
          "type": "string"
        }
      ],
      "name": "TestEvent",
      "type": "event"
    },
    {
      "anonymous": false,
      "inputs": [
        {
          "indexed": false,
          "name": "suit",
          "type": "string"
        },
        {
          "indexed": false,
          "name": "value",
          "type": "string"
        },
        {
          "indexed": false,
          "name": "numval",
          "type": "uint256"
        }
      ],
      "name": "CardDealt",
      "type": "event"
    },
    {
      "anonymous": false,
      "inputs": [
        {
          "indexed": true,
          "name": "_from",
          "type": "address"
        },
        {
          "indexed": true,
          "name": "_to",
          "type": "address"
        },
        {
          "indexed": false,
          "name": "_value",
          "type": "uint256"
        }
      ],
      "name": "Transfer",
      "type": "event"
    },
    {
      "constant": false,
      "inputs": [],
      "name": "DeckInit",
      "outputs": [],
      "payable": false,
      "stateMutability": "nonpayable",
      "type": "function"
    },
    {
      "constant": false,
      "inputs": [],
      "name": "deal",
      "outputs": [
        {
          "name": "suit",
          "type": "string"
        },
        {
          "name": "val",
          "type": "string"
        },
        {
          "name": "numval",
          "type": "uint256"
        }
      ],
      "payable": false,
      "stateMutability": "nonpayable",
      "type": "function"
    },
    {
      "constant": false,
      "inputs": [],
      "name": "PlayerHit",
      "outputs": [],
      "payable": false,
      "stateMutability": "nonpayable",
      "type": "function"
    },
    {
      "constant": false,
      "inputs": [],
      "name": "DealerHit",
      "outputs": [],
      "payable": false,
      "stateMutability": "nonpayable",
      "type": "function"
    },
    {
      "constant": true,
      "inputs": [],
      "name": "getLastDealer",
      "outputs": [
        {
          "name": "",
          "type": "string"
        },
        {
          "name": "",
          "type": "string"
        },
        {
          "name": "",
          "type": "uint256"
        }
      ],
      "payable": false,
      "stateMutability": "view",
      "type": "function"
    },
    {
      "constant": true,
      "inputs": [],
      "name": "getLastPlayer",
      "outputs": [
        {
          "name": "",
          "type": "string"
        },
        {
          "name": "",
          "type": "string"
        },
        {
          "name": "",
          "type": "uint256"
        }
      ],
      "payable": false,
      "stateMutability": "view",
      "type": "function"
    },
    {
      "constant": false,
      "inputs": [
        {
          "name": "bettingAmount",
          "type": "uint256"
        }
      ],
      "name": "checkDealer17",
      "outputs": [
        {
          "name": "",
          "type": "uint256"
        }
      ],
      "payable": false,
      "stateMutability": "nonpayable",
      "type": "function"
    },
    {
      "constant": true,
      "inputs": [],
      "name": "getHandResults",
      "outputs": [
        {
          "name": "",
          "type": "uint256"
        }
      ],
      "payable": false,
      "stateMutability": "view",
      "type": "function"
    },
    {
      "constant": false,
      "inputs": [],
      "name": "PlayerStand",
      "outputs": [],
      "payable": false,
      "stateMutability": "nonpayable",
      "type": "function"
    },
    {
      "constant": false,
      "inputs": [],
      "name": "DealerTurn",
      "outputs": [],
      "payable": false,
      "stateMutability": "nonpayable",
      "type": "function"
    },
    {
      "constant": false,
      "inputs": [
        {
          "name": "_dealer",
          "type": "address"
        },
        {
          "name": "_fund",
          "type": "uint256"
        }
      ],
      "name": "setDealer",
      "outputs": [
        {
          "name": "success",
          "type": "bool"
        }
      ],
      "payable": false,
      "stateMutability": "nonpayable",
      "type": "function"
    },
    {
      "constant": false,
      "inputs": [
        {
          "name": "_player",
          "type": "address"
        },
        {
          "name": "_fund",
          "type": "uint256"
        }
      ],
      "name": "setPlayer",
      "outputs": [
        {
          "name": "success",
          "type": "bool"
        }
      ],
      "payable": false,
      "stateMutability": "nonpayable",
      "type": "function"
    },
    {
      "constant": false,
      "inputs": [
        {
          "name": "dealerSum",
          "type": "uint256"
        },
        {
          "name": "playerSum",
          "type": "uint256"
        },
        {
          "name": "bettingAmount",
          "type": "uint256"
        },
        {
          "name": "premium",
          "type": "uint256"
        }
      ],
      "name": "compare",
      "outputs": [
        {
          "name": "results",
          "type": "uint256"
        }
      ],
      "payable": false,
      "stateMutability": "nonpayable",
      "type": "function"
    },
    {
      "constant": false,
      "inputs": [
        {
          "name": "sender",
          "type": "address"
        },
        {
          "name": "receiver",
          "type": "address"
        },
        {
          "name": "amount",
          "type": "uint256"
        }
      ],
      "name": "sendCoin",
      "outputs": [
        {
          "name": "sufficient",
          "type": "bool"
        }
      ],
      "payable": false,
      "stateMutability": "nonpayable",
      "type": "function"
    },
    {
      "constant": true,
      "inputs": [
        {
          "name": "addr",
          "type": "address"
        }
      ],
      "name": "getBalanceInEth",
      "outputs": [
        {
          "name": "",
          "type": "uint256"
        }
      ],
      "payable": false,
      "stateMutability": "view",
      "type": "function"
    },
    {
      "constant": true,
      "inputs": [
        {
          "name": "amount",
          "type": "uint256"
        },
        {
          "name": "conversionRate",
          "type": "uint256"
        }
      ],
      "name": "convert",
      "outputs": [
        {
          "name": "convertedAmount",
          "type": "uint256"
        }
      ],
      "payable": false,
      "stateMutability": "pure",
      "type": "function"
    },
    {
      "constant": true,
      "inputs": [
        {
          "name": "addr",
          "type": "address"
        }
      ],
      "name": "getBalance",
      "outputs": [
        {
          "name": "",
          "type": "uint256"
        }
      ],
      "payable": false,
      "stateMutability": "view",
      "type": "function"
    }
  ],
  "bytecode": "0x608060405260006029556001602a556002602b556080604051908101604052806040805190810160405280600181526020017f430000000000000000000000000000000000000000000000000000000000000081525081526020016040805190810160405280600181526020017f440000000000000000000000000000000000000000000000000000000000000081525081526020016040805190810160405280600181526020017f480000000000000000000000000000000000000000000000000000000000000081525081526020016040805190810160405280600181526020017f530000000000000000000000000000000000000000000000000000000000000081525081525060cb9060046200011b9291906200048d565b506101a0604051908101604052806040805190810160405280600181526020017f410000000000000000000000000000000000000000000000000000000000000081525081526020016040805190810160405280600181526020017f320000000000000000000000000000000000000000000000000000000000000081525081526020016040805190810160405280600181526020017f330000000000000000000000000000000000000000000000000000000000000081525081526020016040805190810160405280600181526020017f340000000000000000000000000000000000000000000000000000000000000081525081526020016040805190810160405280600181526020017f350000000000000000000000000000000000000000000000000000000000000081525081526020016040805190810160405280600181526020017f360000000000000000000000000000000000000000000000000000000000000081525081526020016040805190810160405280600181526020017f370000000000000000000000000000000000000000000000000000000000000081525081526020016040805190810160405280600181526020017f380000000000000000000000000000000000000000000000000000000000000081525081526020016040805190810160405280600181526020017f390000000000000000000000000000000000000000000000000000000000000081525081526020016040805190810160405280600181526020017f540000000000000000000000000000000000000000000000000000000000000081525081526020016040805190810160405280600181526020017f4a0000000000000000000000000000000000000000000000000000000000000081525081526020016040805190810160405280600181526020017f510000000000000000000000000000000000000000000000000000000000000081525081526020016040805190810160405280600181526020017f4b0000000000000000000000000000000000000000000000000000000000000081525081525060cf90600d62000438929190620004e7565b503480156200044657600080fd5b50336000806101000a81548173ffffffffffffffffffffffffffffffffffffffff021916908373ffffffffffffffffffffffffffffffffffffffff1602179055506200066d565b8260048101928215620004d4579160200282015b82811115620004d3578251829080519060200190620004c292919062000541565b5091602001919060010190620004a1565b5b509050620004e39190620005c8565b5090565b82600d81019282156200052e579160200282015b828111156200052d5782518290805190602001906200051c92919062000541565b5091602001919060010190620004fb565b5b5090506200053d9190620005c8565b5090565b828054600181600116156101000203166002900490600052602060002090601f016020900481019282601f106200058457805160ff1916838001178555620005b5565b82800160010185558215620005b5579182015b82811115620005b457825182559160200191906001019062000597565b5b509050620005c49190620005f9565b5090565b620005f691905b80821115620005f25760008181620005e8919062000621565b50600101620005cf565b5090565b90565b6200061e91905b808211156200061a57600081600090555060010162000600565b5090565b90565b50805460018160011615610100020316600290046000825580601f106200064957506200066a565b601f016020900490600052602060002090810190620006699190620005f9565b5b50565b61240a806200067d6000396000f300608060405260043610610128576000357c0100000000000000000000000000000000000000000000000000000000900463ffffffff168063014892a41461012d5780630b40bd88146101925780631207ca521461021757806316fd06081461027c57806348db5f89146102935780634d495c33146102ea578063553df0211461032b5780635fbd5bdc1461042e5780637bd703e8146104455780637bde97f91461049c5780638410315b146104b35780638da5cb5b146104de57806391d2dc481461053557806396e4ee3d146105605780639de2ee21146105ab578063a4bf010814610602578063cb2f9a4c14610705578063cbbbbedf1461071c578063d6dcb4911461081f578063da323e7c1461087e578063f8b2cb4f14610895578063f9056e88146108ec575b600080fd5b34801561013957600080fd5b50610178600480360381019080803573ffffffffffffffffffffffffffffffffffffffff16906020019092919080359060200190929190505050610917565b604051808215151515815260200191505060405180910390f35b34801561019e57600080fd5b506101fd600480360381019080803573ffffffffffffffffffffffffffffffffffffffff169060200190929190803573ffffffffffffffffffffffffffffffffffffffff169060200190929190803590602001909291905050506109ca565b604051808215151515815260200191505060405180910390f35b34801561022357600080fd5b50610262600480360381019080803573ffffffffffffffffffffffffffffffffffffffff16906020019092919080359060200190929190505050610b27565b604051808215151515815260200191505060405180910390f35b34801561028857600080fd5b50610291610bda565b005b34801561029f57600080fd5b506102a8610cd1565b604051808273ffffffffffffffffffffffffffffffffffffffff1673ffffffffffffffffffffffffffffffffffffffff16815260200191505060405180910390f35b3480156102f657600080fd5b5061031560048036038101908080359060200190929190505050610cf7565b6040518082815260200191505060405180910390f35b34801561033757600080fd5b50610340610fb7565b604051808060200180602001848152602001838103835286818151815260200191508051906020019080838360005b8381101561038a57808201518184015260208101905061036f565b50505050905090810190601f1680156103b75780820380516001836020036101000a031916815260200191505b50838103825285818151815260200191508051906020019080838360005b838110156103f05780820151818401526020810190506103d5565b50505050905090810190601f16801561041d5780820380516001836020036101000a031916815260200191505b509550505050505060405180910390f35b34801561043a57600080fd5b5061044361156b565b005b34801561045157600080fd5b50610486600480360381019080803573ffffffffffffffffffffffffffffffffffffffff1690602001909291905050506116e0565b6040518082815260200191505060405180910390f35b3480156104a857600080fd5b506104b16116fc565b005b3480156104bf57600080fd5b506104c8611707565b6040518082815260200191505060405180910390f35b3480156104ea57600080fd5b506104f361170d565b604051808273ffffffffffffffffffffffffffffffffffffffff1673ffffffffffffffffffffffffffffffffffffffff16815260200191505060405180910390f35b34801561054157600080fd5b5061054a611732565b6040518082815260200191505060405180910390f35b34801561056c57600080fd5b506105956004803603810190808035906020019092919080359060200190929190505050611738565b6040518082815260200191505060405180910390f35b3480156105b757600080fd5b506105c0611745565b604051808273ffffffffffffffffffffffffffffffffffffffff1673ffffffffffffffffffffffffffffffffffffffff16815260200191505060405180910390f35b34801561060e57600080fd5b5061061761176b565b604051808060200180602001848152602001838103835286818151815260200191508051906020019080838360005b83811015610661578082015181840152602081019050610646565b50505050905090810190601f16801561068e5780820380516001836020036101000a031916815260200191505b50838103825285818151815260200191508051906020019080838360005b838110156106c75780820151818401526020810190506106ac565b50505050905090810190601f1680156106f45780820380516001836020036101000a031916815260200191505b509550505050505060405180910390f35b34801561071157600080fd5b5061071a6119a3565b005b34801561072857600080fd5b50610731611ab1565b604051808060200180602001848152602001838103835286818151815260200191508051906020019080838360005b8381101561077b578082015181840152602081019050610760565b50505050905090810190601f1680156107a85780820380516001836020036101000a031916815260200191505b50838103825285818151815260200191508051906020019080838360005b838110156107e15780820151818401526020810190506107c6565b50505050905090810190601f16801561080e5780820380516001836020036101000a031916815260200191505b509550505050505060405180910390f35b34801561082b57600080fd5b5061086860048036038101908080359060200190929190803590602001909291908035906020019092919080359060200190929190505050611ce9565b6040518082815260200191505060405180910390f35b34801561088a57600080fd5b50610893612028565b005b3480156108a157600080fd5b506108d6600480360381019080803573ffffffffffffffffffffffffffffffffffffffff169060200190929190505050612131565b6040518082815260200191505060405180910390f35b3480156108f857600080fd5b5061090161217a565b6040518082815260200191505060405180910390f35b600082600260006101000a81548173ffffffffffffffffffffffffffffffffffffffff021916908373ffffffffffffffffffffffffffffffffffffffff1602179055508160066000600260009054906101000a900473ffffffffffffffffffffffffffffffffffffffff1673ffffffffffffffffffffffffffffffffffffffff1673ffffffffffffffffffffffffffffffffffffffff168152602001908152602001600020819055506001905092915050565b600081600660008673ffffffffffffffffffffffffffffffffffffffff1673ffffffffffffffffffffffffffffffffffffffff168152602001908152602001600020541015610a1c5760009050610b20565b81600660008673ffffffffffffffffffffffffffffffffffffffff1673ffffffffffffffffffffffffffffffffffffffff1681526020019081526020016000206000828254039250508190555081600660008573ffffffffffffffffffffffffffffffffffffffff1673ffffffffffffffffffffffffffffffffffffffff168152602001908152602001600020600082825401925050819055508273ffffffffffffffffffffffffffffffffffffffff168473ffffffffffffffffffffffffffffffffffffffff167fddf252ad1be2c89b69c2b068fc378daa952ba7f163c4a11628f55a4df523b3ef846040518082815260200191505060405180910390a3600190505b9392505050565b600082600160006101000a81548173ffffffffffffffffffffffffffffffffffffffff021916908373ffffffffffffffffffffffffffffffffffffffff1602179055508160066000600160009054906101000a900473ffffffffffffffffffffffffffffffffffffffff1673ffffffffffffffffffffffffffffffffffffffff1673ffffffffffffffffffffffffffffffffffffffff168152602001908152602001600020819055506001905092915050565b60006018600f01549050610bec610fb7565b601860000184600581101515610bfe57fe5b600302016000016000601860000186600581101515610c1957fe5b600302016001016000601860000188600581101515610c3457fe5b6003020160020160008691905055859190509080519060200190610c59929190612189565b50849190509080519060200190610c71929190612189565b50505050601860000181600581101515610c8757fe5b60030201600201546018601001600082825401925050819055506018600f016000815480929190600101919050555060106018601001541115610cce57602b54602d819055505b50565b600260009054906101000a900473ffffffffffffffffffffffffffffffffffffffff1681565b600080600080915060116018601001541015610d165760019050610d8d565b6010601860100154118015610d3057506016601860100154105b15610d83576007601001546018601001541015610d505760029050600191505b6007601001546018601001541115610d6757600390505b6007601001546018601001541415610d7e57600490505b610d8c565b60029050600191505b5b6001811115610f67578115610e8357610deb600160009054906101000a900473ffffffffffffffffffffffffffffffffffffffff16600260009054906101000a900473ffffffffffffffffffffffffffffffffffffffff16866109ca565b15610df557610e7e565b6001600560006101000a81548160ff021916908315150217905550600390507f4c4660db760944215f41e957066d756ad5fd0eed1b4640632322eb06f77b034d81610e61600260009054906101000a900473ffffffffffffffffffffffffffffffffffffffff166116e0565b604051808381526020018281526020019250505060405180910390a15b610f66565b610ed2600260009054906101000a900473ffffffffffffffffffffffffffffffffffffffff16600160009054906101000a900473ffffffffffffffffffffffffffffffffffffffff16866109ca565b15610edc57610f65565b6001600560006101000a81548160ff021916908315150217905550600290507f4c4660db760944215f41e957066d756ad5fd0eed1b4640632322eb06f77b034d81610f48600160009054906101000a900473ffffffffffffffffffffffffffffffffffffffff166116e0565b604051808381526020018281526020019250505060405180910390a15b5b5b7f4b5de2075ef693ef5f4607a6b8b9a40b725a253f266a58fadf7cf9bd9805f99c8185604051808381526020018281526020019250505060405180910390a180602c819055508092505050919050565b6060806000806000806000610fca612209565b6034602e609c0154101515610fde57600080fd5b602e609c0154603403945084600143034060019004811515610ffc57fe5b0693506001602e609c0154603403039250602e6000018460348110151561101f57fe5b600302019150816000018054600181600116156101000203166002900480601f0160208091040260200160405190810160405280929190818152602001828054600181600116156101000203166002900480156110bd5780601f10611092576101008083540402835291602001916110bd565b820191906000526020600020905b8154815290600101906020018083116110a057829003601f168201915b50505050508160000181905250816001018054600181600116156101000203166002900480601f0160208091040260200160405190810160405280929190818152602001828054600181600116156101000203166002900480156111625780601f1061113757610100808354040283529160200191611162565b820191906000526020600020905b81548152906001019060200180831161114557829003601f168201915b505050505081602001819052508160020154816040018181525050602e6000018360348110151561118f57fe5b60030201602e600001856034811015156111a557fe5b60030201600082018160000190805460018160011615610100020316600290046111d092919061222b565b50600182018160010190805460018160011615610100020316600290046111f892919061222b565b506002820154816002015590505080602e6000018460348110151561121957fe5b6003020160008201518160000190805190602001906112399291906122b2565b5060208201518160010190805190602001906112569291906122b2565b5060408201518160020155905050602e609c01600081548092919060010191905055507f58910095584cca529bba7f5ac1d747b5c1a875b81b1ab46d3b5ab1a7cf2128668260000183600101846002015460405180806020018060200184815260200183810383528681815460018160011615610100020316600290048152602001915080546001816001161561010002031660029004801561133a5780601f1061130f5761010080835404028352916020019161133a565b820191906000526020600020905b81548152906001019060200180831161131d57829003601f168201915b50508381038252858181546001816001161561010002031660029004815260200191508054600181600116156101000203166002900480156113bd5780601f10611392576101008083540402835291602001916113bd565b820191906000526020600020905b8154815290600101906020018083116113a057829003601f168201915b50509550505050505060405180910390a17fe75028ff36bb6473da3731a30e1aeeae9988e2415dba2c4e91e0357955065fba82600101604051808060200182810382528381815460018160011615610100020316600290048152602001915080546001816001161561010002031660029004801561147c5780601f106114515761010080835404028352916020019161147c565b820191906000526020600020905b81548152906001019060200180831161145f57829003601f168201915b50509250505060405180910390a17fe75028ff36bb6473da3731a30e1aeeae9988e2415dba2c4e91e0357955065fba8260000160405180806020018281038252838181546001816001161561010002031660029004815260200191508054600181600116156101000203166002900480156115385780601f1061150d57610100808354040283529160200191611538565b820191906000526020600020905b81548152906001019060200180831161151b57829003601f168201915b50509250505060405180910390a18060000151816020015182604001518292508191509750975097505050505050909192565b6000806000602954602d819055506000602c819055506000600760100181905550600060186010018190555060006007600f018190555060006018600f01819055506000602e609c018190555060009250600091505b60048210156116db57600090505b600d8110156116ce5760cb826004811015156115e757fe5b01602e600001846034811015156115fa57fe5b600302016000019080546001816001161561010002031660029004611620929190612332565b5060cf81600d8110151561163057fe5b01602e6000018460348110151561164357fe5b600302016001019080546001816001161561010002031660029004611669929190612332565b50600a8110156116995760018101602e6000018460348110151561168957fe5b60030201600201819055506116b9565b600a602e600001846034811015156116ad57fe5b60030201600201819055505b828060010193505080806001019150506115cf565b81806001019250506115c1565b505050565b60006116f56116ee83612131565b6001611738565b9050919050565b602a54602d81905550565b60045481565b6000809054906101000a900473ffffffffffffffffffffffffffffffffffffffff1681565b60035481565b6000818302905092915050565b600160009054906101000a900473ffffffffffffffffffffffffffffffffffffffff1681565b6060806000806018600f0154111561192457601860000160016018600f01540360058110151561179757fe5b60030201600001601860000160016018600f0154036005811015156117b857fe5b60030201600101601860000160016018600f0154036005811015156117d957fe5b6003020160020154828054600181600116156101000203166002900480601f0160208091040260200160405190810160405280929190818152602001828054600181600116156101000203166002900480156118765780601f1061184b57610100808354040283529160200191611876565b820191906000526020600020905b81548152906001019060200180831161185957829003601f168201915b50505050509250818054600181600116156101000203166002900480601f0160208091040260200160405190810160405280929190818152602001828054600181600116156101000203166002900480156119125780601f106118e757610100808354040283529160200191611912565b820191906000526020600020905b8154815290600101906020018083116118f557829003601f168201915b5050505050915092509250925061199e565b60026040805190810160405280600181526020017f5800000000000000000000000000000000000000000000000000000000000000815250906040805190810160405280600181526020017f5800000000000000000000000000000000000000000000000000000000000000815250908090509250925092505b909192565b6000602a54602d541415156119b757600080fd5b5b60116018601001541015611aa5576018600f015490506119d6610fb7565b6018600001846005811015156119e857fe5b600302016000016000601860000186600581101515611a0357fe5b600302016001016000601860000188600581101515611a1e57fe5b6003020160020160008691905055859190509080519060200190611a43929190612189565b50849190509080519060200190611a5b929190612189565b50505050601860000181600581101515611a7157fe5b60030201600201546018601001600082825401925050819055506018600f01600081548092919060010191905055506119b8565b602b54602d8190555050565b6060806000806007600f01541115611c6a57600760000160016007600f015403600581101515611add57fe5b60030201600001600760000160016007600f015403600581101515611afe57fe5b60030201600101600760000160016007600f015403600581101515611b1f57fe5b6003020160020154828054600181600116156101000203166002900480601f016020809104026020016040519081016040528092919081815260200182805460018160011615610100020316600290048015611bbc5780601f10611b9157610100808354040283529160200191611bbc565b820191906000526020600020905b815481529060010190602001808311611b9f57829003601f168201915b50505050509250818054600181600116156101000203166002900480601f016020809104026020016040519081016040528092919081815260200182805460018160011615610100020316600290048015611c585780601f10611c2d57610100808354040283529160200191611c58565b820191906000526020600020905b815481529060010190602001808311611c3b57829003601f168201915b50505050509150925092509250611ce4565b60026040805190810160405280600181526020017f5800000000000000000000000000000000000000000000000000000000000000815250906040805190810160405280600181526020017f5800000000000000000000000000000000000000000000000000000000000000815250908090509250925092505b909192565b6000806000602b54602d54141515611d0057600080fd5b85871480611d1a5750601587118015611d195750601586115b5b15611d6a57600192507f4b5de2075ef693ef5f4607a6b8b9a40b725a253f266a58fadf7cf9bd9805f99c8386604051808381526020018281526020019250505060405180910390a182925061201e565b60009150600090508587118015611d815750601687105b15611d8f5760029250611e0b565b8686118015611d9e5750601686105b15611dc35760039250600191506015861415611dbe576001905083850194505b611e0a565b601587118015611dd35750601686105b15611de5576003925060019150611e09565b601586118015611df55750601687105b15611e035760029250611e08565b600080fd5b5b5b5b7f4b5de2075ef693ef5f4607a6b8b9a40b725a253f266a58fadf7cf9bd9805f99c8386604051808381526020018281526020019250505060405180910390a18115611f3757611e9f600160009054906101000a900473ffffffffffffffffffffffffffffffffffffffff16600260009054906101000a900473ffffffffffffffffffffffffffffffffffffffff16876109ca565b15611ea957611f32565b6001600560006101000a81548160ff021916908315150217905550600392507f4c4660db760944215f41e957066d756ad5fd0eed1b4640632322eb06f77b034d83611f15600260009054906101000a900473ffffffffffffffffffffffffffffffffffffffff166116e0565b604051808381526020018281526020019250505060405180910390a15b61201a565b611f86600260009054906101000a900473ffffffffffffffffffffffffffffffffffffffff16600160009054906101000a900473ffffffffffffffffffffffffffffffffffffffff16876109ca565b15611f9057612019565b6001600560006101000a81548160ff021916908315150217905550600292507f4c4660db760944215f41e957066d756ad5fd0eed1b4640632322eb06f77b034d83611ffc600160009054906101000a900473ffffffffffffffffffffffffffffffffffffffff166116e0565b604051808381526020018281526020019250505060405180910390a15b5b8292505b5050949350505050565b6000602954602d5414151561203c57600080fd5b6007600f0154905061204c610fb7565b60076000018460058110151561205e57fe5b60030201600001600060076000018660058110151561207957fe5b60030201600101600060076000018860058110151561209457fe5b60030201600201600086919050558591905090805190602001906120b9929190612189565b508491905090805190602001906120d1929190612189565b505050506007600001816005811015156120e757fe5b60030201600201546007601001600082825401925050819055506007600f01600081548092919060010191905055506015600760100154111561212e57602a54602d819055505b50565b6000600660008373ffffffffffffffffffffffffffffffffffffffff1673ffffffffffffffffffffffffffffffffffffffff168152602001908152602001600020549050919050565b600080602c5490508091505090565b828054600181600116156101000203166002900490600052602060002090601f016020900481019282601f106121ca57805160ff19168380011785556121f8565b828001600101855582156121f8579182015b828111156121f75782518255916020019190600101906121dc565b5b50905061220591906123b9565b5090565b6060604051908101604052806060815260200160608152602001600081525090565b828054600181600116156101000203166002900490600052602060002090601f016020900481019282601f1061226457805485556122a1565b828001600101855582156122a157600052602060002091601f016020900482015b828111156122a0578254825591600101919060010190612285565b5b5090506122ae91906123b9565b5090565b828054600181600116156101000203166002900490600052602060002090601f016020900481019282601f106122f357805160ff1916838001178555612321565b82800160010185558215612321579182015b82811115612320578251825591602001919060010190612305565b5b50905061232e91906123b9565b5090565b828054600181600116156101000203166002900490600052602060002090601f016020900481019282601f1061236b57805485556123a8565b828001600101855582156123a857600052602060002091601f016020900482015b828111156123a757825482559160010191906001019061238c565b5b5090506123b591906123b9565b5090565b6123db91905b808211156123d75760008160009055506001016123bf565b5090565b905600a165627a7a72305820a108b64343496377b69ad3548391e0d6e90a0ceb337cc51b78941b6a31d2906b0029",
  "source": "pragma solidity ^0.4.17;\r\n\r\ncontract Blackjack {\r\n  // Parameters of the game.\r\n  address public owner;\r\n  address public dealer;\r\n  address public player;\r\n\r\n  uint public dealerFund;\r\n  uint public playerFund;\r\n\r\n  // Set to true at the end, disallows any change\r\n  bool ended;\r\n\r\n  // Events that will be fired on changes.\r\n  /*\r\n  event GameState(string winner, uint amount);\r\n  event GameEnded(address winner, uint amount);\r\n  */\r\n  event GameState(uint winner, uint amount);\r\n  event GameEnded(uint winner, uint amount);\r\n  event TestEvent(string msg);\r\n  event CardDealt(string suit, string value, uint numval);\r\n\r\n  // for MetaCoin\r\n  mapping (address => uint) balances;\r\n    event Transfer(address indexed _from, address indexed _to, uint256 _value);\r\n\r\n  // define cards & deck\r\n  struct Card {\r\n\t   string suit;\r\n\t   string value;\r\n\t   uint numval;\r\n  }\r\n\r\n  struct Deck {\r\n    Card [52] cards;\r\n\t  uint currentCard;\r\n  }\r\n\r\n  // Not sure how to dynamically size in solidity so use fixed hand size\r\n  struct Hand{\r\n    Card [5] hand;\r\n    uint numCards;\r\n    uint cardTotal;\r\n  }\r\n\r\n  Hand playerHand;\r\n  Hand dealerHand;\r\n\r\n  uint playerTurn = 0;\r\n  uint dealerTurn = 1;\r\n  uint evalTurn = 2;\r\n\r\n  uint gameResult;\r\n\r\n  uint turn;\r\n\r\n  Deck myDeck;\r\n\r\n  string [4] Suits = [\"C\", \"D\", \"H\", \"S\"];\r\n  string [13] Vals =  [\"A\", \"2\", \"3\", \"4\", \"5\", \"6\", \"7\", \"8\", \"9\", \"T\", \"J\", \"Q\", \"K\"];\r\n\r\n  function DeckInit() public {\r\n    turn = playerTurn;\r\n    gameResult = 0;\r\n    playerHand.cardTotal = 0;\r\n    dealerHand.cardTotal = 0;\r\n    playerHand.numCards = 0;\r\n    dealerHand.numCards = 0;\r\n\r\n\t\tmyDeck.currentCard = 0;\r\n\t\tuint counter = 0;\r\n\t\tfor (uint i = 0; i< 4; i++){\r\n\t\t\tfor (uint j = 0; j< 13; j++){\r\n\t\t\t\tmyDeck.cards[counter].suit = Suits[i];\r\n\t\t\t\tmyDeck.cards[counter].value = Vals[j];\r\n\t\t\t\tif (j<10) {\r\n\t\t\t\t\tmyDeck.cards[counter].numval = j+1;\r\n\t\t\t\t}\r\n\t\t\t\telse{\r\n\t\t\t\t\tmyDeck.cards[counter].numval = 10;\r\n\t\t\t\t}\r\n\t\t\t\tcounter++;\r\n\t\t\t}\r\n\t\t}\r\n\t}\r\n\r\n\tfunction deal() public returns (string suit, string val, uint numval){\r\n\t\tif (myDeck.currentCard >= myDeck.cards.length){\r\n      revert();\r\n      // Getting an error on null return. Fix later\r\n\t\t\t//return null;\r\n    }\r\n\t\t// Pick Random number between (myDeck.currentCard and cards.length)\r\n\t\tuint range = myDeck.cards.length - myDeck.currentCard;\r\n\t\t// https://www.reddit.com/r/ethereum/comments/442z66/how_to_generate_a_number_between_110_in_solidity/\r\n\t\tuint cardNum = uint(blockhash(block.number-1)) % range;\r\n\r\n\t\t// Say we selected card (5) out of array on first try\r\n\t\t// Now the range will be 1 unit shorter\r\n\t\t// swap used card with card currently at end of range so it does not get reused and so other card is not cut out\r\n\r\n\t\tuint replaceCardNum = myDeck.cards.length - myDeck.currentCard - 1;\r\n\t\tCard storage temp = myDeck.cards[cardNum];\r\n    Card memory temp1;\r\n    temp1.suit = temp.suit; temp1.value = temp.value; temp1.numval = temp.numval;\r\n\t\tmyDeck.cards[cardNum] = myDeck.cards [replaceCardNum];\r\n\t\tmyDeck.cards[replaceCardNum] = temp1;\r\n\r\n\t\tmyDeck.currentCard++;\r\n\r\n    emit CardDealt(temp.suit, temp.value, temp.numval);\r\n    emit TestEvent(temp.value);\r\n    emit TestEvent(temp.suit);\r\n\t\treturn (temp1.suit, temp1.value, temp1.numval);\r\n    ///return temp.value;\r\n\r\n\t}\r\n\t//}\r\n  // REMOVE firstDeal --> Stack too deep. Remove variables\r\n  // Replace with 2 player hits and 1 dealer Hit\r\n  /*\r\n  function firstDeal() public returns(string Psuit1, string Pval1, uint Pnumval1, string Psuit2, string Pval2, uint Pnumval2, string Dsuit1, string Dval1, uint Dnumval1){\r\n    turn = playerTurn;\r\n    playerHand.cardTotal = 0;\r\n    dealerHand.cardTotal = 0;\r\n    playerHand.numCards = 0;\r\n    dealerHand.numCards = 0;\r\n    for (uint i = 0; i < 1; i++){\r\n      (playerHand.hand[i].suit, playerHand.hand[i].value, playerHand.hand[i].numval) = deal();\r\n      playerHand.cardTotal += playerHand.hand[i].numval;\r\n      playerHand.numCards++;\r\n    }\r\n    i = 0;\r\n    (dealerHand.hand[i].suit, dealerHand.hand[i].value, dealerHand.hand[i].numval) = deal();\r\n    dealerHand.cardTotal += dealerHand.hand[i].numval;\r\n    dealerHand.numCards++;\r\n    // I know this is horrible form, but i ran out of time and just copy / pasted. sorry :(\r\n    return (playerHand.hand[0].suit, playerHand.hand[0].value, playerHand.hand[0].numval,\r\n            playerHand.hand[1].suit, playerHand.hand[1].value, playerHand.hand[1].numval,\r\n            dealerHand.hand[0].suit, dealerHand.hand[0].value, dealerHand.hand[0].numval);\r\n  }\r\n  */\r\n\r\n  function PlayerHit() public /*returns(string Psuit1, string Pval1, uint Pnumval1)*/{\r\n    if (turn != playerTurn){\r\n      revert();\r\n    }\r\n\r\n    uint i = playerHand.numCards;\r\n    (playerHand.hand[i].suit, playerHand.hand[i].value, playerHand.hand[i].numval) = deal();\r\n    playerHand.cardTotal += playerHand.hand[i].numval;\r\n    playerHand.numCards++;\r\n    if (playerHand.cardTotal > 21){\r\n      //Bust\r\n      turn = dealerTurn;\r\n    }\r\n    /*return (playerHand.hand[i].suit, playerHand.hand[i].value, playerHand.hand[i].numval);*/\r\n  }\r\n\r\n  function DealerHit() public /*returns(string, string, uint256)*/{\r\n\r\n   uint i = dealerHand.numCards;\r\n    (dealerHand.hand[i].suit, dealerHand.hand[i].value, dealerHand.hand[i].numval) = deal();\r\n    dealerHand.cardTotal += dealerHand.hand[i].numval;\r\n    dealerHand.numCards++;\r\n    if (dealerHand.cardTotal > 16){\r\n      //Bust\r\n      turn = evalTurn;\r\n    }\r\n    //return (dealerHand.hand[dealerHand.numCards-1].suit, dealerHand.hand[dealerHand.numCards-1].value, dealerHand.hand[dealerHand.numCards-1].numval);\r\n    //For testing do manually\r\n    //return(Suits[3], \"6\", 6);\r\n  }\r\n\r\n  function getLastDealer() public constant returns (string, string, uint256){\r\n    if (dealerHand.numCards > 0){\r\n      return (dealerHand.hand[dealerHand.numCards-1].suit, dealerHand.hand[dealerHand.numCards-1].value, dealerHand.hand[dealerHand.numCards-1].numval);\r\n      //return(\"C\", Vals[4], dealerHand.cardTotal);\r\n    }\r\n    return(\"X\", \"X\", 2); //Works\r\n  }\r\n  function getLastPlayer() public constant returns (string, string, uint256){\r\n    if (playerHand.numCards > 0){\r\n      return (playerHand.hand[playerHand.numCards-1].suit, playerHand.hand[playerHand.numCards-1].value, playerHand.hand[playerHand.numCards-1].numval);\r\n      //return(\"C\", Vals[4], dealerHand.cardTotal);\r\n    }\r\n    return(\"X\", \"X\", 2); //Works\r\n  }\r\n\r\n  //function checkDealer17(/*uint bettingAmount*/) public constant returns (uint256){\r\n  function checkDealer17(uint bettingAmount) public returns (uint256){\r\n    bool isPlayerWinner = false;\r\n    uint256 results;\r\n    if (dealerHand.cardTotal < 17){\r\n      results =  1; // Keep Hitting\r\n    }\r\n    else if (dealerHand.cardTotal > 16 && dealerHand.cardTotal < 22){\r\n      if (dealerHand.cardTotal < playerHand.cardTotal){\r\n        results = 2; // Dealer over 17. Dealer not bust. Player hand higher. Player win\r\n        isPlayerWinner = true;\r\n      }\r\n      if (dealerHand.cardTotal > playerHand.cardTotal){\r\n        results =  3; // Dealer over 17. Dealer not bust. Dealer hand higher. Dealer win\r\n      }\r\n      if (dealerHand.cardTotal == playerHand.cardTotal){\r\n      results =  4; // Same hand. Push\r\n    }\r\n    }\r\n    else{\r\n      results =  2; // Dealer > 21. Dealer Bust. Player win.\r\n      isPlayerWinner = true;\r\n    }\r\n\r\n    if (results > 1){\r\n      if (isPlayerWinner) {\r\n        if(sendCoin(dealer, player, bettingAmount)) {\r\n        } else {\r\n            ended = true;\r\n            results = 3; // Player\r\n            emit GameEnded(results, getBalanceInEth(player));\r\n        }\r\n      } else {\r\n            if (sendCoin(player, dealer, bettingAmount)) {\r\n              } else {\r\n                ended = true;\r\n                results = 2; // Dealer\r\n                emit GameEnded(results, getBalanceInEth(dealer));\r\n              }\r\n      }\r\n    }\r\n\r\n    emit GameState(results, bettingAmount);\r\n\r\n    gameResult = results;\r\n    return results;\r\n  }\r\n\r\n  function getHandResults() public constant returns (uint256){\r\n    uint results = gameResult;\r\n    //gameResult = 0;\r\n    return results;\r\n  }\r\n\r\n\r\n  function PlayerStand()public{\r\n    /*\r\n    // Initially in place for security. Had to remove for Javascript recursion\r\n    if (turn != playerTurn){\r\n      revert();\r\n    }*/\r\n    turn = dealerTurn;\r\n  }\r\n\r\n  function DealerTurn() public {\r\n    if (turn != dealerTurn){\r\n      revert();\r\n    }\r\n    uint i;\r\n    while (dealerHand.cardTotal < 17){\r\n      i = dealerHand.numCards;\r\n      (dealerHand.hand[i].suit, dealerHand.hand[i].value, dealerHand.hand[i].numval) = deal();\r\n      dealerHand.cardTotal += dealerHand.hand[i].numval;\r\n      dealerHand.numCards++;\r\n    }\r\n    turn = evalTurn;\r\n  }\r\n\r\n  // Shuffle;\r\n\r\n\r\n  /// Create a Blackjack game\r\n  /// You can assign owner to do some admin stuff.\r\n  // previously  > function Blackjack > but compilor gives warning\r\n  constructor () public {\r\n    owner = msg.sender;\r\n  }\r\n\r\n  function setDealer(address _dealer, uint _fund) public returns (bool success) {\r\n    dealer = _dealer;\r\n    balances[dealer] = _fund;\r\n    return true;\r\n  }\r\n\r\n  function setPlayer(address _player, uint _fund) public returns (bool success) {\r\n    player = _player;\r\n    balances[player] = _fund;\r\n    return true;\r\n  }\r\n\r\n  /// compare actions to determine winner\r\n  ///\r\n  function compare(uint dealerSum, uint playerSum, uint bettingAmount, uint premium) public returns (uint results){\r\n\r\n    if (turn != evalTurn){\r\n      revert();\r\n    }\r\n    // Return if the hand is a push. No money transfer\r\n\tif ((dealerSum == playerSum)||(dealerSum > 21 && playerSum > 21)) {\r\n      results = 1; // tied\r\n      emit GameState(results, bettingAmount);\r\n      return results;\r\n    }\r\n\r\n\r\n    // determine who is winner.\r\n    bool isPlayerWinner = false;\r\n\tbool isBlackjack = false;\r\n\r\n\t// Dealer Win\r\n\tif (dealerSum > playerSum && dealerSum < 22){\r\n\t\tresults = 2; // dealer\r\n\t}\r\n\t// Player Win\r\n\telse if (playerSum > dealerSum && playerSum < 22){\r\n\t\tresults = 3; // player\r\n\t\tisPlayerWinner = true;\r\n\t\tif (playerSum == 21){\r\n\t\t\tisBlackjack = true;\r\n\t\t\t// Premium is BettingAmount/2 --> passed in from front end because cant divide in solidity\r\n\t\t\tbettingAmount = (bettingAmount + premium);\r\n\t\t}\r\n\t}\r\n\t// Dealer Bust\r\n\telse if (dealerSum > 21 && playerSum < 22){\r\n\t\tresults = 3; //player\r\n\t\tisPlayerWinner = true;\r\n\t}\r\n\t// Player Bust\r\n\telse if (playerSum > 21 && dealerSum < 22){\r\n\t\tresults = 2; //dealer\r\n\t}\r\n\t// Default\r\n\telse{\r\n\t\trevert();\r\n\t}\r\n\r\n    emit GameState(results, bettingAmount);\r\n\r\n    // send betting amount\r\n    if (isPlayerWinner) {\r\n      if(sendCoin(dealer, player, bettingAmount)) {\r\n        // continue game\r\n      } else {\r\n        // end of game\r\n        ended = true;\r\n        results = 3; // Player\r\n        emit GameEnded(results, getBalanceInEth(player));\r\n      }\r\n    } else {\r\n      if (sendCoin(player, dealer, bettingAmount)) {\r\n        // continue game\r\n      } else {\r\n        // end of game\r\n        ended = true;\r\n        results = 2; // Dealer\r\n\r\n        emit GameEnded(results, getBalanceInEth(dealer));\r\n      }\r\n    }\r\n\r\n    return results;\r\n  }\r\n\r\n  // send or receive game coin via smart contract\r\n  function sendCoin(address sender, address receiver, uint amount) public returns(bool sufficient) {\r\n    if (balances[sender] < amount) return false;\r\n    balances[sender] -= amount;\r\n    balances[receiver] += amount;\r\n    emit Transfer(sender, receiver, amount);\r\n    return true;\r\n  }\r\n\r\n  function getBalanceInEth(address addr) public view returns(uint){\r\n    return convert(getBalance(addr), 1);\r\n  }\r\n\r\n  function convert(uint amount,uint conversionRate) public pure returns (uint convertedAmount) {\r\n        return amount * conversionRate;\r\n    }\r\n\r\n  function getBalance(address addr) public view returns(uint) {\r\n    return balances[addr];\r\n  }\r\n}\r\n",
  "sourcePath": "C:\\Users\\Mike\\truffle\\contracts\\Blackjack.sol",
  "compiler": {
    "name": "solc",
    "version": "0.4.24+commit.e67f0147.Emscripten.clang"
  },
  "schemaVersion": "2.0.1",
  "updatedAt": "2018-08-03T03:54:39.335Z"
}